{
  "_format": "hh-sol-artifact-1",
  "contractName": "Lock",
  "sourceName": "contracts/Lock.sol",
  "abi": [
    {
      "inputs": [
        {
          "internalType": "uint256",
          "name": "_unlockTime",
          "type": "uint256"
        }
      ],
      "stateMutability": "payable",
      "type": "constructor"
    },
    {
      "anonymous": false,
      "inputs": [
        {
          "indexed": false,
          "internalType": "uint256",
          "name": "amount",
          "type": "uint256"
        },
        {
          "indexed": false,
          "internalType": "uint256",
          "name": "when",
          "type": "uint256"
        }
      ],
      "name": "Withdrawal",
      "type": "event"
    },
    {
      "inputs": [],
      "name": "getMessage",
      "outputs": [
        {
          "internalType": "string",
          "name": "",
          "type": "string"
        }
      ],
      "stateMutability": "view",
      "type": "function"
    },
    {
      "inputs": [],
      "name": "getOwner",
      "outputs": [
        {
          "internalType": "address",
          "name": "",
          "type": "address"
        }
      ],
      "stateMutability": "view",
      "type": "function"
    },
    {
      "inputs": [],
      "name": "owner",
      "outputs": [
        {
          "internalType": "address payable",
          "name": "",
          "type": "address"
        }
      ],
      "stateMutability": "view",
      "type": "function"
    },
    {
      "inputs": [
        {
          "internalType": "string",
          "name": "_newMessage",
          "type": "string"
        }
      ],
      "name": "setMessage",
      "outputs": [],
      "stateMutability": "nonpayable",
      "type": "function"
    },
    {
      "inputs": [],
      "name": "unlockTime",
      "outputs": [
        {
          "internalType": "uint256",
          "name": "",
          "type": "uint256"
        }
      ],
      "stateMutability": "view",
      "type": "function"
    },
    {
      "inputs": [],
      "name": "withdraw",
      "outputs": [],
      "stateMutability": "nonpayable",
      "type": "function"
    }
  ],
  "bytecode": "0x6080604052604051620017eb380380620017eb83398181016040528101906200002991906200032c565b8042106200006e576040517f08c379a00000000000000000000000000000000000000000000000000000000081526004016200006590620003e5565b60405180910390fd5b604051806020016040528060008152508051906020012060026040516200009691906200051a565b604051809103902014620000e1576040517f08c379a0000000000000000000000000000000000000000000000000000000008152600401620000d89062000583565b60405180910390fd5b620001a3604051806060016040528060228152602001620017c960229139600280546200010e9062000436565b80601f01602080910402602001604051908101604052809291908181526020018280546200013c9062000436565b80156200018d5780601f1062000161576101008083540402835291602001916200018d565b820191906000526020600020905b8154815290600101906020018083116200016f57829003601f168201915b50505050506200021d60201b620004851760201c565b8060008190555033600160006101000a81548173ffffffffffffffffffffffffffffffffffffffff021916908373ffffffffffffffffffffffffffffffffffffffff160217905550604051806080016040528060418152602001620017886041913960029081620002159190620007b1565b505062000951565b620002bf82826040516024016200023692919062000916565b6040516020818303038152906040527f4b5c4277000000000000000000000000000000000000000000000000000000007bffffffffffffffffffffffffffffffffffffffffffffffffffffffff19166020820180517bffffffffffffffffffffffffffffffffffffffffffffffffffffffff8381831617835250505050620002c360201b60201c565b5050565b60008151905060006a636f6e736f6c652e6c6f679050602083016000808483855afa5050505050565b600080fd5b6000819050919050565b6200030681620002f1565b81146200031257600080fd5b50565b6000815190506200032681620002fb565b92915050565b600060208284031215620003455762000344620002ec565b5b6000620003558482850162000315565b91505092915050565b600082825260208201905092915050565b7f556e6c6f636b2074696d652073686f756c6420626520696e207468652066757460008201527f7572650000000000000000000000000000000000000000000000000000000000602082015250565b6000620003cd6023836200035e565b9150620003da826200036f565b604082019050919050565b600060208201905081810360008301526200040081620003be565b9050919050565b7f4e487b7100000000000000000000000000000000000000000000000000000000600052602260045260246000fd5b600060028204905060018216806200044f57607f821691505b60208210810362000465576200046462000407565b5b50919050565b600081905092915050565b60008190508160005260206000209050919050565b600081546200049a8162000436565b620004a681866200046b565b94506001821660008114620004c45760018114620004da5762000511565b60ff198316865281151582028601935062000511565b620004e58562000476565b60005b838110156200050957815481890152600182019150602081019050620004e8565b838801955050505b50505092915050565b60006200052882846200048b565b915081905092915050565b7f546865206d6573736167652073686f756c64206e6f7420626520656d70747900600082015250565b60006200056b601f836200035e565b9150620005788262000533565b602082019050919050565b600060208201905081810360008301526200059e816200055c565b9050919050565b600081519050919050565b7f4e487b7100000000000000000000000000000000000000000000000000000000600052604160045260246000fd5b60008190508160005260206000209050919050565b60006020601f8301049050919050565b600082821b905092915050565b600060088302620006437fffffffffffffffffffffffffffffffffffffffffffffffffffffffffffffffff8262000604565b6200064f868362000604565b95508019841693508086168417925050509392505050565b6000819050919050565b6000620006926200068c6200068684620002f1565b62000667565b620002f1565b9050919050565b6000819050919050565b620006ae8362000671565b620006c6620006bd8262000699565b84845462000611565b825550505050565b600090565b620006dd620006ce565b620006ea818484620006a3565b505050565b5b81811015620007125762000706600082620006d3565b600181019050620006f0565b5050565b601f82111562000761576200072b81620005df565b6200073684620005f4565b8101602085101562000746578190505b6200075e6200075585620005f4565b830182620006ef565b50505b505050565b600082821c905092915050565b6000620007866000198460080262000766565b1980831691505092915050565b6000620007a1838362000773565b9150826002028217905092915050565b620007bc82620005a5565b67ffffffffffffffff811115620007d857620007d7620005b0565b5b620007e4825462000436565b620007f182828562000716565b600060209050601f83116001811462000829576000841562000814578287015190505b62000820858262000793565b86555062000890565b601f1984166200083986620005df565b60005b8281101562000863578489015182556001820191506020850194506020810190506200083c565b868310156200088357848901516200087f601f89168262000773565b8355505b6001600288020188555050505b505050505050565b60005b83811015620008b85780820151818401526020810190506200089b565b60008484015250505050565b6000601f19601f8301169050919050565b6000620008e282620005a5565b620008ee81856200035e565b93506200090081856020860162000898565b6200090b81620008c4565b840191505092915050565b60006040820190508181036000830152620009328185620008d5565b90508181036020830152620009488184620008d5565b90509392505050565b610e2780620009616000396000f3fe608060405234801561001057600080fd5b50600436106100625760003560e01c8063251c1aa314610067578063368b8772146100855780633ccfd60b146100a1578063893d20e8146100ab5780638da5cb5b146100c9578063ce6d41de146100e7575b600080fd5b61006f610105565b60405161007c9190610602565b60405180910390f35b61009f600480360381019061009a9190610777565b61010b565b005b6100a961022a565b005b6100b36103a3565b6040516100c09190610801565b60405180910390f35b6100d16103cd565b6040516100de919061083d565b60405180910390f35b6100ef6103f3565b6040516100fc91906108d7565b60405180910390f35b60005481565b604051806020016040528060008152508051906020012081805190602001201461016a576040517f08c379a000000000000000000000000000000000000000000000000000000000815260040161016190610945565b60405180910390fd5b6102176040518060600160405280602a8152602001610dc8602a91396002805461019390610994565b80601f01602080910402602001604051908101604052809291908181526020018280546101bf90610994565b801561020c5780601f106101e15761010080835404028352916020019161020c565b820191906000526020600020905b8154815290600101906020018083116101ef57829003601f168201915b505050505083610521565b80600290816102269190610b71565b5050565b60005442101561026f576040517f08c379a000000000000000000000000000000000000000000000000000000000815260040161026690610c8f565b60405180910390fd5b600160009054906101000a900473ffffffffffffffffffffffffffffffffffffffff1673ffffffffffffffffffffffffffffffffffffffff163373ffffffffffffffffffffffffffffffffffffffff16146102ff576040517f08c379a00000000000000000000000000000000000000000000000000000000081526004016102f690610cfb565b60405180910390fd5b7fbf2ed60bd5b5965d685680c01195c9514e4382e28e3a5a2d2d5244bf59411b934742604051610330929190610d1b565b60405180910390a1600160009054906101000a900473ffffffffffffffffffffffffffffffffffffffff1673ffffffffffffffffffffffffffffffffffffffff166108fc479081150290604051600060405180830381858888f193505050501580156103a0573d6000803e3d6000fd5b50565b6000600160009054906101000a900473ffffffffffffffffffffffffffffffffffffffff16905090565b600160009054906101000a900473ffffffffffffffffffffffffffffffffffffffff1681565b60606002805461040290610994565b80601f016020809104026020016040519081016040528092919081815260200182805461042e90610994565b801561047b5780601f106104505761010080835404028352916020019161047b565b820191906000526020600020905b81548152906001019060200180831161045e57829003601f168201915b5050505050905090565b61051d828260405160240161049b929190610d44565b6040516020818303038152906040527f4b5c4277000000000000000000000000000000000000000000000000000000007bffffffffffffffffffffffffffffffffffffffffffffffffffffffff19166020820180517bffffffffffffffffffffffffffffffffffffffffffffffffffffffff83818316178352505050506105c0565b5050565b6105bb83838360405160240161053993929190610d7b565b6040516020818303038152906040527f2ced7cef000000000000000000000000000000000000000000000000000000007bffffffffffffffffffffffffffffffffffffffffffffffffffffffff19166020820180517bffffffffffffffffffffffffffffffffffffffffffffffffffffffff83818316178352505050506105c0565b505050565b60008151905060006a636f6e736f6c652e6c6f679050602083016000808483855afa5050505050565b6000819050919050565b6105fc816105e9565b82525050565b600060208201905061061760008301846105f3565b92915050565b6000604051905090565b600080fd5b600080fd5b600080fd5b600080fd5b6000601f19601f8301169050919050565b7f4e487b7100000000000000000000000000000000000000000000000000000000600052604160045260246000fd5b6106848261063b565b810181811067ffffffffffffffff821117156106a3576106a261064c565b5b80604052505050565b60006106b661061d565b90506106c2828261067b565b919050565b600067ffffffffffffffff8211156106e2576106e161064c565b5b6106eb8261063b565b9050602081019050919050565b82818337600083830152505050565b600061071a610715846106c7565b6106ac565b90508281526020810184848401111561073657610735610636565b5b6107418482856106f8565b509392505050565b600082601f83011261075e5761075d610631565b5b813561076e848260208601610707565b91505092915050565b60006020828403121561078d5761078c610627565b5b600082013567ffffffffffffffff8111156107ab576107aa61062c565b5b6107b784828501610749565b91505092915050565b600073ffffffffffffffffffffffffffffffffffffffff82169050919050565b60006107eb826107c0565b9050919050565b6107fb816107e0565b82525050565b600060208201905061081660008301846107f2565b92915050565b6000610827826107c0565b9050919050565b6108378161081c565b82525050565b6000602082019050610852600083018461082e565b92915050565b600081519050919050565b600082825260208201905092915050565b60005b83811015610892578082015181840152602081019050610877565b60008484015250505050565b60006108a982610858565b6108b38185610863565b93506108c3818560208601610874565b6108cc8161063b565b840191505092915050565b600060208201905081810360008301526108f1818461089e565b905092915050565b7f4d6573736167652073686f756c64206e6f7220626520656d7074790000000000600082015250565b600061092f601b83610863565b915061093a826108f9565b602082019050919050565b6000602082019050818103600083015261095e81610922565b9050919050565b7f4e487b7100000000000000000000000000000000000000000000000000000000600052602260045260246000fd5b600060028204905060018216806109ac57607f821691505b6020821081036109bf576109be610965565b5b50919050565b60008190508160005260206000209050919050565b60006020601f8301049050919050565b600082821b905092915050565b600060088302610a277fffffffffffffffffffffffffffffffffffffffffffffffffffffffffffffffff826109ea565b610a3186836109ea565b95508019841693508086168417925050509392505050565b6000819050919050565b6000610a6e610a69610a64846105e9565b610a49565b6105e9565b9050919050565b6000819050919050565b610a8883610a53565b610a9c610a9482610a75565b8484546109f7565b825550505050565b600090565b610ab1610aa4565b610abc818484610a7f565b505050565b5b81811015610ae057610ad5600082610aa9565b600181019050610ac2565b5050565b601f821115610b2557610af6816109c5565b610aff846109da565b81016020851015610b0e578190505b610b22610b1a856109da565b830182610ac1565b50505b505050565b600082821c905092915050565b6000610b4860001984600802610b2a565b1980831691505092915050565b6000610b618383610b37565b9150826002028217905092915050565b610b7a82610858565b67ffffffffffffffff811115610b9357610b9261064c565b5b610b9d8254610994565b610ba8828285610ae4565b600060209050601f831160018114610bdb5760008415610bc9578287015190505b610bd38582610b55565b865550610c3b565b601f198416610be9866109c5565b60005b82811015610c1157848901518255600182019150602085019450602081019050610bec565b86831015610c2e5784890151610c2a601f891682610b37565b8355505b6001600288020188555050505b505050505050565b7f596f752063616e27742077697468647261772079657400000000000000000000600082015250565b6000610c79601683610863565b9150610c8482610c43565b602082019050919050565b60006020820190508181036000830152610ca881610c6c565b9050919050565b7f596f75206172656e277420746865206f776e6572000000000000000000000000600082015250565b6000610ce5601483610863565b9150610cf082610caf565b602082019050919050565b60006020820190508181036000830152610d1481610cd8565b9050919050565b6000604082019050610d3060008301856105f3565b610d3d60208301846105f3565b9392505050565b60006040820190508181036000830152610d5e818561089e565b90508181036020830152610d72818461089e565b90509392505050565b60006060820190508181036000830152610d95818661089e565b90508181036020830152610da9818561089e565b90508181036040830152610dbd818461089e565b905094935050505056fe57656c636f6d65206d657373616765206368616e6765642066726f6d202725732027746f202725732720a264697066735822122035fcabfe145b2b71e71c11c93a6441f290d2c136e258c85f47b317281dc5b4cd64736f6c6343000811003357656c636f6d6520746f206d792066697273742044617070206f6e20457468657265756d2d686172646861742d65746865722d52656163742d536f6c696469747957656c636f6d6520746f204d79206669727374204461707020496e74657266616365",
  "linkReferences": {},
  "deployedLinkReferences": {}
}